:020000040800F2
:1000000020040020450100084D0100084F010008B0
:1000100051010008530100085501000800000000CC
:100020000000000000000000000000005701000870
:1000300059010008000000005B010008810D000864
:100040005F0100085F0100085F0100085F01000810
:100050005F0100085F0100085F0100085F01000800
:100060005F0100085F0100085F0100085F010008F0
:100070005F0100085F0100085F0100085F010008E0
:100080005F0100085F0100085F0100085F010008D0
:100090005F0100085F0100085F0100085F010008C0
:1000A0005F0100085F0100085F0100085F010008B0
:1000B0005F0100085F0100085F0100085F010008A0
:1000C0005F0100085F0100085F0100085F01000890
:1000D0005F0100085F0100085F0100085F01000880
:1000E0005F0100085F0100085F0100085F01000870
:1000F0005F0100085F0100085F0100085F01000860
:100100005F0100085F0100085F0100085F0100084F
:100110005F0100085F0100085F0100085F0100083F
:100120005F0100085F0100085F0100085F0100082F
:10013000DFF80CD000F02AF900480047710E0008E3
:10014000200400200648804706480047FEE7FEE7F7
:10015000FEE7FEE7FEE7FEE7FEE7FEE7FEE7FEE777
:10016000B10D0008310100082DE9F04D81EA0304CA
:1001700004F0004B21F0004514464FF0000A23F034
:10018000004150EA050220D054EA01021DD0C5F317
:100190000A570246C5F31303C1F31300C1F30A560D
:1001A00040F4801543F48013A7EB0608101BD646D5
:1001B00008F2FD3873EB050002D308F1010801E0F5
:1001C00092185B41B8F1000F03DA00200146BDE848
:1001D000F08D00204FF48011064684460EE0171B78
:1001E00073EB050705D3121B63EB050306434CEACB
:1001F000010C49084FEA300092185B4150EA0107B0
:10020000EDD152EA030012D082EA040083EA05012C
:10021000084305D0101BAB4106D20122002306E0A3
:1002200000224FF0004302E06FF0010253101AEB7E
:1002300006004CEB085110EB0A0041EB0B01BDE846
:10024000F04D00F045B80EB540F233410291002167
:10025000CDE900110A460B4600F049F803B000BD95
:10026000C1F30A5210B5C1F3130140F2FF3341F458
:1002700080119A4201DA002010BD40F233439A42C5
:10028000A2F2334203DC524200F012F810BD90405B
:1002900010BD202A04DB203A00FA02F1002070474A
:1002A0009140C2F1200320FA03F3194390407047B4
:1002B000202A04DB203A21FA02F00021704721FABB
:1002C00002F3D040C2F12002914008431946704722
:1002D00010B5141E73F1000408DA401C41F100014E
:1002E00092185B411A4301D120F0010010BD2DE9A5
:1002F000F04D92469B4611B1B1FA81F202E0B0FA9C
:1003000080F220329046FFF7C4FF04460F4640EAD1
:100310000A0041EA0B0153465A46084313D01146DE
:1003200053EA010019D0C8F140025046FFF7C0FF60
:1003300005460E46504659464246FFF7AAFF084377
:1003400005D0012004E020463946BDE8F08D0020AC
:10035000054346EAE0762C4337430A986305E40AEE
:10036000A0EB08000022FD0A44EA47540A3002D5F7
:1003700000200146E9E7010510196941DDE908455A
:1003800000196941BDE8F04DA2E70000064C074D99
:1003900006E0E06840F0010394E807009847103455
:1003A000AC42F6D3FFF7C8FE840E0008A40E000886
:1003B00010B586B0044601A800F014FB022C5DD0F5
:1003C000402C2FD0482C5AD100F0E6FA4FF4803060
:1003D00000F0A4FB00BF312000F06EFB0028FAD033
:1003E000002000F08FFB4FF4806000F0C3FB002082
:1003F00000F0CCFB4FF4E0114FF4803000F0D8FB5C
:10040000012000F0CFFB00BF392000F055FB002891
:10041000FAD0022000F0DAFB00BF00F06BFB0828E6
:10042000FBD12CE000F0B8FA012000F09DFB00BFEA
:10043000212000F041FB0028FAD0002000F062FBF0
:100440004FF4806000F096FB002000F09FFB4FF41B
:100450004011002000F0ACFB012000F0A3FB00BF26
:10046000392000F029FB0028FAD0022000F0AEFB72
:1004700000BF00F03FFB0828FBD100E000BF00BF39
:1004800007490298B0FBF1F0064908704FF4FA51A1
:100490000298B0FBF1F080B20349088006B010BDAD
:1004A00000127A00160000201800002010B5044643
:1004B00000F0B6F9462000F07DF900BF00F0F0F939
:1004C0000028FBD1204600F075F900BF00F0E8F9E4
:1004D0000028FBD100F0C4F9052000F01BF810BD86
:1004E0002DE9F04100F00AFA00F07CFB04462046BA
:1004F000FFF7A9FE05464FF03332054BFFF734FEF8
:100500000746FFF7ADFE84B22046BDE8F08100004B
:100510003333F33F104A128802FB00F1B1F1807FC0
:1005200001D36FF07F414FF0E022516101224FF083
:10053000E0231A6100229A610021084A108002E03B
:100540004FF0E02211690A0C002AF9D000224FF086
:10055000E0231A619A617047180000201A000020F9
:10056000012801DD421E01E04FF4A0420C4B1B7834
:100570005A43911E4FF0E022516101224FF0E023D7
:100580001A6100229A6102E04FF0E02211690A0C20
:10059000002AF9D000224FF0E0231A619A617047D7
:1005A000160000202DE9F04102460025002600201B
:1005B00000230024002791F803C00CF00F0591F8E8
:1005C00003C00CF0100CBCF1000F03D091F802C076
:1005D0004CEA050591F800C0BCF1000F31D0146859
:1005E00000202BE04FF0010C0CFA00F3B1F800C032
:1005F0000CEA03069E4220D183004FF00F0C0CFA48
:1006000003F7BC4305FA03FC4CEA040491F803C069
:10061000BCF1280F06D14FF0010C0CFA00FCC2F817
:1006200014C00AE091F803C0BCF1480F05D14FF0A7
:10063000010C0CFA00FCC2F810C0401C0828D1D3F1
:100640001460B1F800C0BCF1FF0F34DD5468002025
:100650002EE000F1080C4FF0010808FA0CF3B1F895
:1006600000C00CEA03069E4221D183004FF00F0C1C
:100670000CFA03F7BC4305FA03FC4CEA040491F8B6
:1006800003C0BCF1280F05D100F1080C08FA0CF8E2
:10069000C2F8148091F803C0BCF1480F07D100F1F3
:1006A000080C4FF0010808FA0CF8C2F81080401C42
:1006B0000828CED35460BDE8F0810246002093683C
:1006C0000B400BB1012000E00020704741617047F2
:1006D0000161704710B54FF480710D48FFF7F6FFC8
:1006E00000F0BCFA4FF400710948FFF7EFFF022059
:1006F000FFF736FF4FF480710548FFF7E9FF02204E
:10070000FFF72EFF4FF480710148FFF7DFFF10BDA8
:10071000000C014010B54FF480710D48FFF7D6FF73
:1007200000F09CFA4FF400710948FFF7D1FF022056
:10073000FFF716FF4FF480710548FFF7C9FF02204D
:10074000FFF70EFF4FF480710148FFF7BFFF10BDA8
:10075000000C014070B50546002400F06DFA00263B
:100760001BE04FF480711248FFF7B0FF0220FFF743
:10077000F7FE4FF480710E48FFF7AAFF6006040EE3
:100780004FF400710A48FFF798FF08B1601CC4B22B
:100790000120FFF7E5FE701CC6B2082EE1DB15B99B
:1007A000FFF7B8FF01E0FFF795FF204670BD00009E
:1007B000000C014070B5044600F050FA4FF480710F
:1007C0001648FFF783FF002524E004F0800028B1DD
:1007D0004FF400711148FFF77BFF04E04FF4007104
:1007E0000E48FFF773FF6006040E0220FFF7B8FE05
:1007F0004FF480710948FFF76BFF0220FFF7B0FE4E
:100800004FF480710548FFF761FF0220FFF7A8FE53
:10081000681CC5B2082DD8DB70BD0000000C01407B
:1008200010B500F01BFA4FF400710C48FFF750FFB1
:100830004FF480710948FFF74BFF0420FFF790FE4B
:100840004FF400710548FFF741FF0420FFF788FED1
:100850004FF480710148FFF739FF10BD000C0140D3
:1008600010B500F0FBF94FF480710C48FFF72EFF34
:100870004FF400710948FFF729FF0420FFF770FECD
:100880004FF480710548FFF723FF4FF400710348D0
:10089000FFF71EFF0420FFF763FE10BD000C0140B0
:1008A00010B500244FF400711348FFF711FF012029
:1008B000FFF756FE4FF480710F48FFF709FF012044
:1008C000FFF74EFE00F0B8F907E0601CC4B2FA2C46
:1008D00003DDFFF7C5FF012010BD4FF4007106488E
:1008E000FFF7EBFE0028F0D14FF480710248FFF7CC
:1008F000EDFE0020F0E70000000C014010B500F014
:1009000097FA10BD08B54820FFF752FD01211C20C1
:1009100000F032F84FF40040ADF8000003208DF8ED
:10092000020010208DF8030069461048FFF73AFED8
:100930004FF40050ADF8000003208DF802001020A5
:100940008DF8030069460A48FFF72CFE4FF48070CB
:10095000ADF8000003208DF8020010208DF8030090
:1009600069460448FFF71EFE08BD0000000801406C
:1009700000100140000C014029B1064A926902436F
:10098000044B9A6104E0034A92698243014B9A61E5
:1009900070470000001002400F48006840F001005E
:1009A0000D490860084640680C4908400A494860FB
:1009B000084600680A490840074908600846006878
:1009C00020F4802008600846406820F4FE0048605B
:1009D0004FF41F0088607047001002400000FFF8CD
:1009E000FFFFF6FE30B500210022002400232D4D2C
:1009F0006D6805F00C0121B1042905D0082923D127
:100A000005E0294D056022E0274D05601FE0254DDA
:100A10006D6805F47012234D6D6805F4803402256D
:100A200005EB92421CB9214D554305600BE01D4D6D
:100A30006D6805F400351DB11C4D5543056002E09D
:100A4000194D5543056002E0174D056000BF00BF1A
:100A5000144D6D6805F0F0010909154D6B5C0568D2
:100A6000DD4045600F4D6D6805F4E061090A104DE9
:100A70006B5C4568DD4085600A4D6D6805F460512A
:100A8000C90A0B4D6B5C4568DD40C560054D6D685E
:100A900005F44041890B074D6B5CC568B5FBF3F568
:100AA000056130BD0010024000127A0000093D00CF
:100AB000000000201000002010B501460022002395
:100AC00000204A11012A02D1094C236806E0022ABB
:100AD00002D1074C236A01E0054C636A01F01F0252
:100AE000012494401C400CB1012000E0002010BD06
:100AF000001002400248406800F00C0070470000FF
:100B00000010024001460020034A506820F0F00027
:100B10000843506070470000001002401149096806
:100B200021F480310F4A11601146096821F48021B7
:100B30001160B0F5803F03D0B0F5802F0ED106E0F4
:100B40000849096841F48031064A116007E0054907
:100B5000096841F4A021034A116000E000BF00BF12
:100B60007047000000100240014908607047000013
:100B70000000424201460020034A506820F4E06031
:100B800008435060704700000010024001460020FA
:100B9000034A506820F4605040EAC100506070473A
:100BA0000010024001490866704700000000424200
:100BB00002460020044B586820F47C1042EA0103EE
:100BC0001843014B58607047001002400146002056
:100BD000034A506820F0030008435060704700004B
:100BE0000010024010B500F0BFF89620FFF792FC0D
:100BF000FFF716FE4720FFF7DDFD00BFFFF750FEB1
:100C00000028FBD10120FFF7A5FD0A49087000204C
:100C1000FFF7A0FD07494870FFF722FE0520FFF708
:100C200079FC04480478407800EB042084B2204624
:100C300010BD00001400002008B54FF40070ADF89E
:100C4000000003208DF8020004208DF8030069469F
:100C50000148FFF7A7FC08BD000C014008B54FF4A0
:100C60000070ADF8000003208DF8020014208DF80C
:100C7000030069460148FFF795FC08BD000C0140E0
:100C800010B500F001F810BD0CB5002001900090E7
:100C90003348006840F480303149086000BF304874
:100CA000006800F4003000900198401C019000980A
:100CB00018B90198B0F5A06FF1D12948006800F487
:100CC000003010B10120009001E000200090009859
:100CD000012843D12348006840F0100021490860F2
:100CE0000846006820F0030008600846006840F0ED
:100CF000020008601A484068194948600846406880
:100D000048600846406840F4806048600846406893
:100D100020F47C1048600846406840F4E8104860C1
:100D20000846006840F08070086000BF0C4800680A
:100D300000F000700028F9D00948406820F0030056
:100D4000074948600846406840F00200486000BF1C
:100D50000348406800F00C000828F9D10CBD0000E1
:100D6000001002400020024010B50120FFF79EFB5A
:100D70000720FFF79BFB2020FFF798FB10BD00002A
:100D80000948007870B10948008828B107480088F0
:100D9000401E0649088005E000204FF0E021086170
:100DA00001490870704700001C0000201A00002054
:100DB00010B51348006840F001001149086008466A
:100DC0004068104908400E494860084600680E49CE
:100DD00008400B4908600846006820F4802008603D
:100DE0000846406820F4FE0048604FF41F00886009
:100DF000FFF746FF4FF000600449086010BD000097
:100E0000001002400000FFF8FFFFF6FE08ED00E0D2
:100E100002E008C8121F08C1002AFAD170477047C3
:100E2000002001E001C1121F002AFBD17047000021
:100E300008B501210820FFF79FFD4FF44070ADF881
:100E4000000010208DF8030003208DF80200694691
:100E50000648FFF7A7FB4FF480710448FFF738FC02
:100E60004FF400710148FFF733FC08BD000C01404E
:100E7000FFF748FD04E0FFF733FB6420FFF74AFB70
:100E8000F9E70000A40E0008000000202000000088
:100E9000100E0008C40E000820000020000400000E
:100EA000200E0008000000000102030401020304F8
:100EB0000607080902040608000000000000000000
:040EC000000000002E
:0400000508000131BD
:00000001FF
